:020000020000FC
:100000000A0003000000000000000000E0E0F0E053
:100010000491E2E0F0E015912491A4E0B0E02C918D
:10002000E6E0F0E035914491E8E0F0E0559164912C
:10003000C5E0D0E07C91C9EFD1E22997CDBFDEBF0A
:10004000098718872F833E834D835C836B837A8374
:10005000F982188509856B817A810217B0F0F22E3A
:1000600015D02F83F982AA27082F192F0F9DB001D1
:100070001F9D630D701DA11D360F471F5A1F682F4E
:10008000792F6B837A832395E4CFFFCFCF93DF93D0
:100090000F931F932F93CDB7DEB72297DEBFCDBF4F
:1000A00029831A8301E081E090E029811A812017D9
:1000B00040F0E82FF92FEE0FFF1F8E0F9F1F0395C3
:1000C000F4CFCDB7DEB72296CDBFDEBF2F911F9103
:0800D0000F91DF91CF9108951B
:00000001FF
