:020000020000FC
:100000000C9431000C947E000C9489000C949400A4
:10005C000C94A500189501E20EBF0FEF0DBF0FE039
:10006C0007B908B90AE2009369000DB307600DBB2C
:10007C00C7E0D2E000270883C4E0D2E00027088361
:10008C00C5E0D2E000270883C6E0D2E00027088351
:10009C0078940FEF00BB01B9002701BB02B90CE348
:1000AC000DB90AE400939A00002700939B0001E02D
:1000BC000093910001E20093900008E3BDD0D6D0EC
:1000CC00F1D008E3B9D0D2D0E4D008E3B5D0CED08B
:1000DC0008E3B2D0CBD008E0AFD0C8D001E0ACD0B0
:1000EC00C5D006E0A9D0C2D00EE0A6D0BFD091C03A
:1000FC00DFD00F930FB70F9305E008B9E0D00F9145
:10010C000FBF0F911895D4D00F930FB70F930CE02E
:10011C0008B9E4D00F910FBF0F9118950F930FB73B
:10012C000F93809107028395809307020F910FBF65
:10013C000F911895809302029093030263C00FB73E
:10014C000F93DF93CF939F938F93809102029091A3
:10015C00030201968D3003E0900761F7C2E0D2E014
:10016C000027099308838091000290910102019667
:10017C00809300029093010201E05ED077D08091D1
:10018C000702869500910702000F800F222704E6D4
:10019C00801718F0801B2395FACF000020930602DD
:1001AC0033270AE0801718F0801B3395FACF000034
:1001BC0030930502809304020091060240E3040F81
:1001CC00002F45D053D00091050240E3040F002FBF
:1001DC003ED04CD00091040240E3040F002F37D0E6
:1001EC0045D0C7E0D2E000270883C4E0D2E0002766
:1001FC000883C5E0D2E000270883C6E0D2E00027E0
:10020C00088300C08F919F91CF91DF910F910FBF09
:10021C001895C2E0D2E0002709930883C0E0D2E031
:10022C0000270993088300E004BD02E005BD01E04E
:10023C0000936E007894FFCF01BB0000169A00006B
:10024C00000000001698000000000000089501BB9B
:10025C00179A000000000000169A00000000000031
:10026C001698000000000000179808950F930027BF
:10027C0000BB01BB159A0000169A0000000000009C
:10028C000FB1169807FDF7CF15980FEF00BB0F9124
:10029C0008958F939F939FE08CE90197F1F79F91BD
:1002AC008F910895F6DFF5DFF4DFF3DFF2DF0895C9
:1002BC000027063409F408950395F4DFFACF509122
:1002CC009A00662705E1500F5F3F30F450939A0077
:1002DC00552750939B0008955FEFF8CF50919A00EB
:1002EC006627553140F005E1501B50939A00552775
:0C02FC0050939B00089555276627F7CF0C
:00000001FF
