:020000020000FC
:100000000C9431000C9430000C9430000C946F0070
:10005C000C948000189501E20EBF0FEF0DBF0FEF4F
:10006C0007B900E2009369000DB304600DBBC7E053
:10007C00D2E000270883C4E0D2E000270883C5E063
:10008C00D2E000270883C6E0D2E0002708837894EA
:10009C000FEF00BB01B9002701BB02B908E3ADD0DB
:1000AC00C6D0E1D008E3A9D0C2D0D4D008E3A5D003
:1000BC00BED008E3A2D0BBD008E09FD0B8D001E0FE
:1000CC009CD0B5D006E099D0B2D00EE096D0AFD08F
:1000DC007EC00F930FB70F93809107028395809387
:1000EC0007020F910FBF0F91189580930202909306
:1000FC00030266C00FB70F93DF93CF939F938F9339
:10010C00809102029091030201968D3003E09007DA
:10011C0061F7109518B9C2E0D2E000270993088363
:10012C0080910002909101020196809300029093BD
:10013C00010201E062D07BD0809107028695880F86
:10014C00082F880F880F800F222704E6801718F0DD
:10015C00801B2395FACF00002093060233270AE078
:10016C00801718F0801B3395FACF000030930502EE
:10017C00809304020091060240E3040F002F48D044
:10018C0056D00091050240E3040F002F41D04FD010
:10019C000091040240E3040F002F3AD048D0C7E08E
:1001AC00D2E000270883C4E0D2E000270883C5E032
:1001BC00D2E000270883C6E0D2E00027088300C005
:1001CC008F919F91CF91DF910F910FBF18951FEFDA
:1001DC0018B910EFC2E0D2E0002709930883C0E001
:1001EC00D2E000270993088300E004BD02E005BDBE
:1001FC0001E000936E007894FFCF01BB0000169ACB
:10020C000000000000001698000000000000089597
:10021C0001BB179A000000000000169A00000000B5
:10022C0000001698000000000000179808950F9326
:10023C00002700BB01BB159A0000169A00000000B5
:10024C0000000FB1169807FDF7CF15980FEF00BB04
:10025C000F9108958F939F939FE08CE90197F1F78D
:10026C009F918F910895F6DFF5DFF4DFF3DFF2DF76
:02027C000895E3
:00000001FF
