:020000020000FC
:100000000C9431000C9430000C9430000C9470006F
:10005C000C948100189501E20EBF0FEF0DBF08B98B
:10006C00002707B900E2009369000DB304600DBBD3
:10007C00C7E0D2E000270883C4E0D2E00027088361
:10008C00C5E0D2E000270883C6E0D2E00027088351
:10009C0078940FEF00BB01B9002701BB02B908E34C
:1000AC00BDD0D6D0F1D008E3B9D0D2D0E4D008E39B
:1000BC00B5D0CED008E3B2D0CBD008E0AFD0C8D00A
:1000CC0001E0ACD0C5D006E0A9D0C2D00EE0A6D0DD
:1000DC00BFD07BC00F930FB70F938091070283950E
:1000EC00809307020F910FBF0F9118958093020216
:1000FC009093030263C00FB70F93DF93CF939F933B
:10010C008F9380910202909103020196883A02E04B
:10011C00900761F7C2E0D2E0002709930883809131
:10012C0000029091010201968093000290930102CB
:10013C0001E074D08DD08091070286950091070262
:10014C00000F800F222704E6801718F0801B2395E0
:10015C00FACF00002093060233270AE0801718F02C
:10016C00801B3395FACF0000309305028093040274
:10017C000091060240E3040F002F5BD069D0009180
:10018C00050240E3040F002F54D062D0009104020A
:10019C0040E3040F002F4DD05BD0C7E0D2E0002726
:1001AC000883C4E0D2E000270883C5E0D2E0002732
:1001BC000883C6E0D2E00027088300C08F919F918E
:1001CC00CF91DF910F910FBF1895C2E0D2E00027BD
:1001DC0009930883C0E0D2E000270993088300E06C
:1001EC0004BD02E005BD01E000936E0078940FEFB2
:1001FC000DB90FEF00939A00002700939B0001E0CC
:10020C000093910001E200939000309902C042D01B
:10021C0048D03199FACF3ED058D0F7CF01BB00006F
:10022C00169A000000000000169800000000000064
:10023C00089501BB179A000000000000169A0000F8
:10024C0000000000169800000000000017980895A8
:10025C000F93002700BB01BB159A0000169A0000F3
:10026C00000000000FB1169807FDF7CF15980FEF9F
:10027C0000BB0F9108958F939F939FE08CE901979A
:10028C00F1F79F918F910895F6DFF5DFF4DFF3DF3F
:10029C00F2DF08950027063409F408950395F4DF7E
:1002AC00FACF0FB7F89450919A0066270AE1500FD5
:1002BC00523800E0600730F460939B0050939A0032
:1002CC000FBF089552E860E0F7CF0FB7F894509144
:1002DC009A0066275A3100E0600740F00AE1501B93
:1002EC0060939B0050939A000FBF08955527662783
:0202FC00F7CF3A
:00000001FF
