:020000020000FC
:100000000C9402005FEF5DBF51E25EBF50EF509372
:100010000A015FEF57B958B950BB51B9552751BBC9
:1000200052B908E368D081D09CD008E364D07DD079
:100030008FD008E360D079D008E35DD076D008E0B7
:100040005AD073D001E057D070D006E054D06DD0B4
:100050000EE051D06AD077273FEE222730930B0174
:100060005FEF5A95F1F7509109015F705F3061F0D1
:1000700031E01127452F432319F40DD00C942C00A7
:100080001395330F0C943A00233031F30894331F47
:1000900023950C942E006BD0233059F0133079F057
:1000A000512F550F510F520F539500E3500F0C94E1
:1000B0006E005AE0510F07E3500F0C946E00203091
:1000C00039F0213051F05FE004E1500F0C946E00E4
:1000D0005EE00CE1500F0C946E0050E358B97031A3
:1000E00029F07395052F12D020D0089501E003D098
:1000F0001CD07727F6CF01BB0000169A0000000045
:1001000000001698000000000000089501BB179A37
:10011000000000000000169A000000000000169881
:10012000000000000000179808950F93002700BBFF
:1001300001BB159A0000169A0000000000000FB1E4
:10014000169807FDF7CF15980FEF00BB0F91089594
:100150008F939F939FE08CE90197F1F79F918F9187
:100160000895F6DFF5DFF4DFF3DFF2DF08956627A9
:0C017000663409F408956395F4DFFACFBB
:00000001FF
