:020000020000FC
:10000000080001000300020081E090E0A0E0B2E0FF
:100010006D917C91CFEFD1E2DEBFCDBFE0E0F0E0AB
:100020000491E2E0F0E01491E4E0F0E02491E6E0F5
:10003000F0E0349102D000C0FFCFCF93DF93CDB773
:10004000DEB72497DEBFCDBF39832A831B830C83A1
:100050000130B9F00C811B8129813A810150EDDF1B
:1000600001E01B812A813981E8DF0C8119812A8115
:100070003B810150E2DF2496DEBFCDBFDF91CF91FF
:080080000895680F791FF7CF06
:00000001FF
