:020000020000FC
:100000000C9431000C9483000C948D000C943000FF
:10005C000C94BD0018955FEF5DBF51E25EBF50EF91
:10006C0050930A015FEF57B9552758B95FEF50BB52
:10007C0051B9552751BB52B9C2E1D2E053E6002722
:10008C00503019F009935A95FBCFC2E0D2E05527B6
:10009C0059935883C0E0D2E055275993588350E0C8
:1000AC0054BD52E055BD51E050936E00789488EAEF
:1000BC008093050271E0882760E0C6E0D2E0552706
:1000CC00588308E3CED4E7D402D508E3CAD4E3D4EA
:1000DC00F5D408E3C6D4DFD408E3C3D4DCD408E0F9
:1000EC00C0D4D9D401E0BDD4D6D406E0BAD4D3D48C
:1000FC000EE0B7D4D0D40C9454015F935FB75F93E8
:10010C0051E050930E025F915FBF5F911895ECD454
:10011C005F935FB75F9350911102513011F05030E3
:10012C0061F051E05093100250E05093110278941A
:10013C0040911102413091F0FBCF41E0409311020C
:10014C005CE35DB95FEF50939A00552750939B0089
:10015C0051E05093910051E250939000F894C0E11B
:10016C00D2E0552758835F915FBF5F9118955FB7B9
:10017C005F93DF93CF939F938F9380910202909123
:10018C000302019684385EE19507A1F4C2E0D2E047
:10019C005527599358838091000290910102019642
:1001AC00809300029093010280910402803091F0C0
:1001BC0039D009C08093020290930302809104020B
:1001CC00803009F02FD08F919F91CF91DF915F916B
:1001DC005FBF189580910002813008F4F4CFF89439
:1001EC00C2E0D2E0552759935883C0E0D2E055279E
:1001FC005993588370FD13C08091050283958093A9
:10020C00050271E08395C0910902D0910A021993FD
:10021C00C0930902D0930A02012F2ED43CD47894B7
:10022C0060E0DCCF5F934F938F939F9350911002BC
:10023C00513029F09F918F914F915F91089580914A
:10024C000202909103028C325AE0950778F45CE339
:10025C005DB950E050939A00552750939B0051E0A4
:10026C005093910051E250939000E4CF40910F02D3
:10027C00403011F0413031F04FEF48B941E040933C
:10028C000F0206C040E048B940E040930F0200C0A6
:10029C00C2E0D2E0552759935883D9CF0DE4ECD363
:1002AC00FAD301E6E9D3F7D308E7E6D3F4D300E2B7
:1002BC00E3D3F1D303E7E0D3EED304E7DDD3EBD301
:1002CC000FE6DAD3E8D300E7D7D3E5D300E2D4D3F3
:1002DC00E2D30EE6D1D3DFD305E7CED3DCD30DE6E4
:1002EC00CBD3D9D30AE3C8D3D6D300ECBAD3D3D368
:1002FC0051E0352EADD2509108025B3018F450937A
:10030C00070214C001E0ADD3C6D305E4B5D3C3D303
:10031C0002E7B2D3C0D302E7AFD3BDD301E2ACD373
:10032C00BAD3C8E0D2E055275883B8CF01E099D3AF
:10033C00B2D3332450910602009107025017E0F516
:10034C0000E3252E050F102E139428D304E594D327
:10035C00A2D309E791D39FD300E78ED39CD305E6B4
:10036C008BD399D300E288D396D303E785D393D369
:10037C0004E782D390D30FE67FD38DD300E77CD3F1
:10038C008AD3012D79D387D300E276D384D30EE6BA
:10039C0073D381D301E670D37ED30DE66DD37BD3BB
:1003AC0005E66AD378D30AE367D375D351D2122CFE
:1003BC00139410920602BACFC6E0D2E055275883A8
:1003CC00C8E0D2E05527588310900602212C0091EA
:1003DC0007020A95101678F5139400E3100E04E545
:1003EC004BD359D309E648D356D30DE645D353D353
:1003FC0005E642D350D300E23FD34DD3012D3CD37D
:10040C004AD3139400E238D346D304E735D343D30D
:10041C000FE632D340D300E22FD33DD3012D2CD3A2
:10042C003AD30AE329D337D300EC1BD334D351E0AE
:10043C00352E0ED2C0C010900602012D013061F194
:10044C0000E3100E139404E517D325D309E614D357
:10045C0022D30DE611D31FD305E60ED31CD300E235
:10046C000BD319D3012D08D316D300E205D313D324
:10047C0004E702D310D30FE6FFD20DD300E2FCD277
:10048C000AD301E3F9D207D30AE3F6D204D300EC82
:10049C00E8D201D3DDD1A7C004E5EED2FCD202E74D
:1004AC00EBD2F9D201E6E8D2F6D209E6E5D2F3D2E4
:1004BC000EE6E2D2F0D200E2DFD2EDD203E7DCD2DC
:1004CC00EAD204E7D9D2E7D20FE6D6D2E4D200E7DB
:1004DC00D3D2E1D200E2D0D2DED206E6CDD2DBD24C
:1004EC000FE6CAD2D8D202E7C7D2D5D20AE3C4D219
:1004FC00D2D2AED150910802563028F4523018F0B6
:10050C0050930B0217C001E0ACD2C5D205E4B4D2B3
:10051C00C2D202E7B1D2BFD202E7AED2BCD201E264
:10052C00ABD2B9D200EC9DD2B6D2C8E0D2E05527FE
:10053C005883B2CF01E095D2AED201E49DD2ABD2BA
:10054C000CE69AD2A8D20CE697D2A5D200E294D2AD
:10055C00A2D204E691D29FD20FE68ED29CD20EE6A6
:10056C008BD299D205E688D296D200EC7AD293D26D
:10057C0007E582D290D201E67FD28DD209E67CD2F9
:10058C008AD204E779D287D200E276D284D206E608
:10059C0073D281D20FE670D27ED202E76DD27BD2BB
:1005AC0000E26AD278D205E367D275D203E764D24F
:1005BC0072D29AD244C0509108025B3060F53BD2A3
:1005CC0050910802A0910C02B0910D025D932394FE
:1005DC00122C10920602C8E0D2E05527588301E095
:1005EC0040D259D2F1CE509108025B30A0F423D204
:1005FC0050910802A0910C02B0910D025D932394CE
:10060C00122C10920602C8E0D2E05527588301E064
:10061C0028D241D241CF01E024D23DD205E42CD2E4
:10062C003AD202E729D237D202E726D234D201E2FB
:10063C0023D231D2C8E0D2E055275883C5CE5AE038
:10064C00509369005DB353605DBB78945CE35DB916
:10065C0050E050939A00552750939B0051E05093D3
:10066C00910051E25093900038D237D236D235D225
:10067C0034D201E0F6D10FD2C6E0D2E05527588330
:10068C0051E05093040252E0352E51E05093110288
:10069C00552750930E02CFE0D2E055275883C0E186
:1006AC00D2E0552758835CE35DB95FEF50939A0015
:1006BC00552750939B0051E05093910051E2509379
:1006CC009000B9D12091070230910602231B2030F3
:1006DC0009F006C0C6E7D2E0C0930C02D0930D021D
:1006EC00C0910C02D0910D02288101E0BAD1D3D176
:1006FC000EE6C2D1D0D105E6BFD1CDD108E7BCD131
:10070C00CAD104E7B9D1C7D10AE3B6D1C4D100EC40
:10071C00A8D1C1D1DCD154D0203031F001E3ACD11F
:10072C00BAD1DBD12A95F8CF50910E02513009F095
:10073C003CC011E010931002C2E0D2E0552759934F
:10074C00588301E08ED1A7D107E796D1A4D101E659
:10075C0093D1A1D109E690D19ED104E78DD19BD143
:10076C0000E28AD198D106E687D195D10FE684D1E3
:10077C0092D102E781D18FD10AE37ED18CD100ECEA
:10078C0070D189D1109106021A951093060218D0D7
:10079C0013951093060210910B0204E36DD17BD1DB
:1007AC009CD1103011F01A95F8CFC0E1D2E055274A
:1007BC005883CEE0D2E05527588340E048B973CF38
:1007CC005F934F930F93CF93DF93C2E1D2E0C0932B
:1007DC000902D0930A024091070250910602451B70
:1007EC00403069F0009106025091060240910702D8
:1007FC005395451B403049F05093060209C05527CC
:10080C0050930602C2E1D2E0E6CF55275093060280
:10081C00C5D000930602C0910902D0910A0249E0AA
:10082C005991503039F0403029F0052F25D133D172
:10083C004A95F6CF5091060253955093060240E02C
:10084C0048B9DF91CF910F914F915F910895FFCFF0
:10085C003FEE222730930B015FEF5A95F1F7509141
:10086C0009015F705F3099F031E01127452F432368
:10087C0051F4532D513091F0523091F01BD09130F6
:10088C0081F00C942E041395330F0C943C042330FC
:10089C00F9F20894331F23950C9430044AD0EFCF0F
:1008AC00D7CF08EA0093050271E0882799276627BD
:1008BC007894089519D1233061F0512F550F510FB1
:1008CC00520F052F550F500F00E4500F53950C94F9
:1008DC007704103039F1123011F00C94940491E03B
:1008EC001DC0560F63956330D9F08B3008F5772710
:1008FC005B35A9F450EA152F00910502002FB1D0F9
:10090C00CAD0012FB9D0C7D0C2E0D2E05527599335
:10091C005883C0E0D2E05527599358830895EBCF04
:10092C0060E0E3CF009105020A9500930502F6CF33
:10093C00F5CFF894D9D0233089F0512F550F510FA2
:10094C00520F5395703001F140910802450F4093BE
:10095C00080200E3500F77270C94C604113031F0D5
:10096C00123011F00C94940491E00DC050E34091BE
:10097C000802440F042F440F440F400F4093080209
:10098C00052F7AD088D0089540910802440F042F87
:10099C00440F440F400F40930802D6CFF8945F9356
:1009AC004F93509106024AE0503019F4C2E1D2E064
:1009BC002BC0513019F4CCE1D2E026C0523019F4DE
:1009CC00C6E2D2E021C0533019F4C0E3D2E01CC01F
:1009DC00543019F4CAE3D2E017C0553019F4C4E40A
:1009EC00D2E012C0563019F4CEE4D2E00DC057302C
:1009FC0019F4C8E5D2E008C0583019F4C2E6D2E0C8
:100A0C0003C0CCE6D2E000C0C0930902D0930A0226
:100A1C0066244A3061F0699269926992699269928E
:100A2C00699269926992699269924A95F2CF4F9153
:100A3C005F9178940895F8945F93CF93DF935091DE
:100A4C000602C6E7D2E0503019F079905A95FBCFE8
:100A5C00C0930C02D0930D02DF91CF915F917894EB
:100A6C00089501BB0000169A0000000000001698C3
:100A7C00000000000000089501BB179A0000000060
:100A8C000000169A000000000000169800000000FC
:100A9C000000179808950F93002700BB01BB159A0F
:100AAC000000169A0000000000000FB1169807FD18
:100ABC00F7CF15980FEF00BB0F9108958F939F936D
:100ACC009FE08CE90197F1F79F918F910895F6DFE4
:100ADC00F5DFF4DFF3DFF2DF08950027083C09F4BB
:100AEC0008950395F4DFFACF0027063409F408952E
:060AFC000395EDDFFACFC7
:00000001FF
