:020000020000FC
:100000000C9406000C941A000C9427000FEF0DBFFF
:1000100001E20EBF0FEF07B90FE008B900270AB9D8
:100020000BB90AE0009369000DB303600DBB78942F
:100030000C9435002CD00F930FB70F9308B10030FC
:1000400069F10A9508B90F910FBF0F9118951FD04C
:100050001ED00F930FB70F9308B10F3009F103951E
:1000600008B90F910FBF0F91189500270395FECF88
:100070008F939F939FE08CE90197F1F79F918F9168
:100080000895F6DFF5DFF4DFF3DFF2DF08951127DF
:10009000163409F408951395F4DFFACF0FE0D2CFA8
:0400A00000E0DECFCF
:00000001FF
