:020000020000FC
:040000000C947200EA
:1000E4005FEF5DBF51E25EBF50EF50930A015FEFD7
:1000F40057B958B93FEE222730930B015FEF5A9559
:10010400F1F7509109015F705F3061F031E0112720
:10011400452F432319F40DD00C947C001395330F11
:100124000C948A00233031F30894331F23950C94E4
:100134007E00233049F0133059F0512F550F510FE1
:10014400520F53950C94B5005AE0510F0C94B5001E
:10015400203029F0213031F05FE00C94B5005EE0EE
:0A0164000C94B500552758B9089512
:00000001FF
