:020000020000FC
:0C0000000C9431000C9430000C94300083
:10005C000C943800189501E20EBF0FEF0DBF0FEF97
:10006C0007B931C00FB70F93DF93CF939F938F9343
:10007C008091020290910302019684380EE1900760
:10008C00B9F418B1212F3CE323232C3391F11395B0
:10009C0018B9C2E0D2E000270993088380910002CE
:1000AC00909101020196809300029093010204C08A
:1000BC0080930202909303028F919F91CF91DF91D5
:1000CC000F910FBF18951FEF18B910E0C2E0D2E0E6
:1000DC00002709930883C0E0D2E000270993088326
:1000EC0000E004BD02E005BD01E000936E007894D1
:0C00FC00FFCF30EC132330E4130FCACF09
:00000001FF
