:020000020000FC
:0C0000000C9431000C9430000C94300083
:10005C000C945800189501E20EBF0FEF0DBF0FEF77
:10006C0007B90FEF00BB01B9002701BB02B908E3C8
:10007C008BD0A4D0BFD008E387D0A0D0B2D008E3F7
:10008C0083D09CD008E380D099D008E07DD096D066
:10009C0001E07AD093D006E077D090D00EE074D007
:1000AC008DD058C00FB70F93DF93CF939F938F933F
:1000BC008091020290910302019684380EE1900720
:1000CC00F1F518B1212F3CE323232C3331F1139597
:1000DC0018B9493339F1439501E056D06FD0072F49
:1000EC005ED06CD0062F5BD069D00AE358D066D0B6
:1000FC00052F55D063D0042F52D060D0C2E0D2E08F
:10010C0000270993088380910002909101020196C7
:10011C00809300029093010216C030EC132330E45C
:10012C00130FD6CF40E3553311F05395D5CF50E391
:10013C00693311F06395D0CF60E37395CDCF809385
:10014C000202909303028F919F91CF91DF910F91B7
:10015C000FBF189540E350E360E370E31FEF18B94D
:10016C0010E0C2E0D2E0002709930883C0E0D2E09F
:10017C0000270993088300E004BD02E005BD01E0FF
:10018C0000936E007894FFCF01BB0000169A00001C
:10019C00000000001698000000000000089501BB4C
:1001AC00179A000000000000169A000000000000E2
:1001BC001698000000000000179808950F93002770
:1001CC0000BB01BB159A0000169A0000000000004D
:1001DC000FB1169807FDF7CF15980FEF00BB0F91D5
:1001EC0008958F939F939FE08CE90197F1F79F916E
:1001FC008F910895F6DFF5DFF4DFF3DFF2DF08957A
:00000001FF
